{
  "_format": "hh3-artifact-1",
  "contractName": "Lord",
  "sourceName": "contracts/Lord.sol",
  "abi": [
    {
      "inputs": [
        {
          "internalType": "address",
          "name": "initialOwner",
          "type": "address"
        }
      ],
      "stateMutability": "nonpayable",
      "type": "constructor"
    },
    {
      "inputs": [
        {
          "internalType": "address",
          "name": "sender",
          "type": "address"
        },
        {
          "internalType": "uint256",
          "name": "balance",
          "type": "uint256"
        },
        {
          "internalType": "uint256",
          "name": "needed",
          "type": "uint256"
        },
        {
          "internalType": "uint256",
          "name": "tokenId",
          "type": "uint256"
        }
      ],
      "name": "ERC1155InsufficientBalance",
      "type": "error"
    },
    {
      "inputs": [
        {
          "internalType": "address",
          "name": "approver",
          "type": "address"
        }
      ],
      "name": "ERC1155InvalidApprover",
      "type": "error"
    },
    {
      "inputs": [
        {
          "internalType": "uint256",
          "name": "idsLength",
          "type": "uint256"
        },
        {
          "internalType": "uint256",
          "name": "valuesLength",
          "type": "uint256"
        }
      ],
      "name": "ERC1155InvalidArrayLength",
      "type": "error"
    },
    {
      "inputs": [
        {
          "internalType": "address",
          "name": "operator",
          "type": "address"
        }
      ],
      "name": "ERC1155InvalidOperator",
      "type": "error"
    },
    {
      "inputs": [
        {
          "internalType": "address",
          "name": "receiver",
          "type": "address"
        }
      ],
      "name": "ERC1155InvalidReceiver",
      "type": "error"
    },
    {
      "inputs": [
        {
          "internalType": "address",
          "name": "sender",
          "type": "address"
        }
      ],
      "name": "ERC1155InvalidSender",
      "type": "error"
    },
    {
      "inputs": [
        {
          "internalType": "address",
          "name": "operator",
          "type": "address"
        },
        {
          "internalType": "address",
          "name": "owner",
          "type": "address"
        }
      ],
      "name": "ERC1155MissingApprovalForAll",
      "type": "error"
    },
    {
      "inputs": [],
      "name": "EnforcedPause",
      "type": "error"
    },
    {
      "inputs": [],
      "name": "ExpectedPause",
      "type": "error"
    },
    {
      "inputs": [
        {
          "internalType": "address",
          "name": "owner",
          "type": "address"
        }
      ],
      "name": "OwnableInvalidOwner",
      "type": "error"
    },
    {
      "inputs": [
        {
          "internalType": "address",
          "name": "account",
          "type": "address"
        }
      ],
      "name": "OwnableUnauthorizedAccount",
      "type": "error"
    },
    {
      "anonymous": false,
      "inputs": [
        {
          "indexed": true,
          "internalType": "address",
          "name": "account",
          "type": "address"
        },
        {
          "indexed": true,
          "internalType": "address",
          "name": "operator",
          "type": "address"
        },
        {
          "indexed": false,
          "internalType": "bool",
          "name": "approved",
          "type": "bool"
        }
      ],
      "name": "ApprovalForAll",
      "type": "event"
    },
    {
      "anonymous": false,
      "inputs": [
        {
          "indexed": true,
          "internalType": "address",
          "name": "user",
          "type": "address"
        },
        {
          "indexed": false,
          "internalType": "uint256[]",
          "name": "characterIds",
          "type": "uint256[]"
        },
        {
          "indexed": false,
          "internalType": "uint256",
          "name": "timestamp",
          "type": "uint256"
        }
      ],
      "name": "GachaMint",
      "type": "event"
    },
    {
      "anonymous": false,
      "inputs": [
        {
          "indexed": true,
          "internalType": "address",
          "name": "previousOwner",
          "type": "address"
        },
        {
          "indexed": true,
          "internalType": "address",
          "name": "newOwner",
          "type": "address"
        }
      ],
      "name": "OwnershipTransferred",
      "type": "event"
    },
    {
      "anonymous": false,
      "inputs": [
        {
          "indexed": false,
          "internalType": "address",
          "name": "account",
          "type": "address"
        }
      ],
      "name": "Paused",
      "type": "event"
    },
    {
      "anonymous": false,
      "inputs": [
        {
          "indexed": true,
          "internalType": "address",
          "name": "operator",
          "type": "address"
        },
        {
          "indexed": true,
          "internalType": "address",
          "name": "from",
          "type": "address"
        },
        {
          "indexed": true,
          "internalType": "address",
          "name": "to",
          "type": "address"
        },
        {
          "indexed": false,
          "internalType": "uint256[]",
          "name": "ids",
          "type": "uint256[]"
        },
        {
          "indexed": false,
          "internalType": "uint256[]",
          "name": "values",
          "type": "uint256[]"
        }
      ],
      "name": "TransferBatch",
      "type": "event"
    },
    {
      "anonymous": false,
      "inputs": [
        {
          "indexed": true,
          "internalType": "address",
          "name": "operator",
          "type": "address"
        },
        {
          "indexed": true,
          "internalType": "address",
          "name": "from",
          "type": "address"
        },
        {
          "indexed": true,
          "internalType": "address",
          "name": "to",
          "type": "address"
        },
        {
          "indexed": false,
          "internalType": "uint256",
          "name": "id",
          "type": "uint256"
        },
        {
          "indexed": false,
          "internalType": "uint256",
          "name": "value",
          "type": "uint256"
        }
      ],
      "name": "TransferSingle",
      "type": "event"
    },
    {
      "anonymous": false,
      "inputs": [
        {
          "indexed": false,
          "internalType": "string",
          "name": "value",
          "type": "string"
        },
        {
          "indexed": true,
          "internalType": "uint256",
          "name": "id",
          "type": "uint256"
        }
      ],
      "name": "URI",
      "type": "event"
    },
    {
      "anonymous": false,
      "inputs": [
        {
          "indexed": false,
          "internalType": "address",
          "name": "account",
          "type": "address"
        }
      ],
      "name": "Unpaused",
      "type": "event"
    },
    {
      "inputs": [],
      "name": "MAX_CHARACTER_ID",
      "outputs": [
        {
          "internalType": "uint256",
          "name": "",
          "type": "uint256"
        }
      ],
      "stateMutability": "view",
      "type": "function"
    },
    {
      "inputs": [],
      "name": "MIN_CHARACTER_ID",
      "outputs": [
        {
          "internalType": "uint256",
          "name": "",
          "type": "uint256"
        }
      ],
      "stateMutability": "view",
      "type": "function"
    },
    {
      "inputs": [
        {
          "internalType": "address",
          "name": "account",
          "type": "address"
        },
        {
          "internalType": "uint256",
          "name": "id",
          "type": "uint256"
        }
      ],
      "name": "balanceOf",
      "outputs": [
        {
          "internalType": "uint256",
          "name": "",
          "type": "uint256"
        }
      ],
      "stateMutability": "view",
      "type": "function"
    },
    {
      "inputs": [
        {
          "internalType": "address[]",
          "name": "accounts",
          "type": "address[]"
        },
        {
          "internalType": "uint256[]",
          "name": "ids",
          "type": "uint256[]"
        }
      ],
      "name": "balanceOfBatch",
      "outputs": [
        {
          "internalType": "uint256[]",
          "name": "",
          "type": "uint256[]"
        }
      ],
      "stateMutability": "view",
      "type": "function"
    },
    {
      "inputs": [
        {
          "internalType": "address",
          "name": "account",
          "type": "address"
        },
        {
          "internalType": "uint256",
          "name": "id",
          "type": "uint256"
        },
        {
          "internalType": "uint256",
          "name": "value",
          "type": "uint256"
        }
      ],
      "name": "burn",
      "outputs": [],
      "stateMutability": "nonpayable",
      "type": "function"
    },
    {
      "inputs": [
        {
          "internalType": "address",
          "name": "account",
          "type": "address"
        },
        {
          "internalType": "uint256[]",
          "name": "ids",
          "type": "uint256[]"
        },
        {
          "internalType": "uint256[]",
          "name": "values",
          "type": "uint256[]"
        }
      ],
      "name": "burnBatch",
      "outputs": [],
      "stateMutability": "nonpayable",
      "type": "function"
    },
    {
      "inputs": [
        {
          "internalType": "uint256",
          "name": "id",
          "type": "uint256"
        }
      ],
      "name": "exists",
      "outputs": [
        {
          "internalType": "bool",
          "name": "",
          "type": "bool"
        }
      ],
      "stateMutability": "view",
      "type": "function"
    },
    {
      "inputs": [
        {
          "internalType": "address",
          "name": "user",
          "type": "address"
        },
        {
          "internalType": "uint256",
          "name": "numberOfNFTs",
          "type": "uint256"
        }
      ],
      "name": "gachaMint",
      "outputs": [
        {
          "internalType": "uint256[]",
          "name": "characterIds",
          "type": "uint256[]"
        }
      ],
      "stateMutability": "nonpayable",
      "type": "function"
    },
    {
      "inputs": [
        {
          "internalType": "address",
          "name": "account",
          "type": "address"
        },
        {
          "internalType": "address",
          "name": "operator",
          "type": "address"
        }
      ],
      "name": "isApprovedForAll",
      "outputs": [
        {
          "internalType": "bool",
          "name": "",
          "type": "bool"
        }
      ],
      "stateMutability": "view",
      "type": "function"
    },
    {
      "inputs": [
        {
          "internalType": "address",
          "name": "account",
          "type": "address"
        },
        {
          "internalType": "uint256",
          "name": "id",
          "type": "uint256"
        },
        {
          "internalType": "uint256",
          "name": "amount",
          "type": "uint256"
        },
        {
          "internalType": "bytes",
          "name": "data",
          "type": "bytes"
        }
      ],
      "name": "mint",
      "outputs": [],
      "stateMutability": "nonpayable",
      "type": "function"
    },
    {
      "inputs": [
        {
          "internalType": "address",
          "name": "to",
          "type": "address"
        },
        {
          "internalType": "uint256[]",
          "name": "ids",
          "type": "uint256[]"
        },
        {
          "internalType": "uint256[]",
          "name": "amounts",
          "type": "uint256[]"
        },
        {
          "internalType": "bytes",
          "name": "data",
          "type": "bytes"
        }
      ],
      "name": "mintBatch",
      "outputs": [],
      "stateMutability": "nonpayable",
      "type": "function"
    },
    {
      "inputs": [],
      "name": "owner",
      "outputs": [
        {
          "internalType": "address",
          "name": "",
          "type": "address"
        }
      ],
      "stateMutability": "view",
      "type": "function"
    },
    {
      "inputs": [],
      "name": "pause",
      "outputs": [],
      "stateMutability": "nonpayable",
      "type": "function"
    },
    {
      "inputs": [],
      "name": "paused",
      "outputs": [
        {
          "internalType": "bool",
          "name": "",
          "type": "bool"
        }
      ],
      "stateMutability": "view",
      "type": "function"
    },
    {
      "inputs": [
        {
          "internalType": "uint256",
          "name": "numberOfNFTs",
          "type": "uint256"
        }
      ],
      "name": "publicGachaMint",
      "outputs": [
        {
          "internalType": "uint256[]",
          "name": "characterIds",
          "type": "uint256[]"
        }
      ],
      "stateMutability": "payable",
      "type": "function"
    },
    {
      "inputs": [],
      "name": "renounceOwnership",
      "outputs": [],
      "stateMutability": "nonpayable",
      "type": "function"
    },
    {
      "inputs": [
        {
          "internalType": "address",
          "name": "from",
          "type": "address"
        },
        {
          "internalType": "address",
          "name": "to",
          "type": "address"
        },
        {
          "internalType": "uint256[]",
          "name": "ids",
          "type": "uint256[]"
        },
        {
          "internalType": "uint256[]",
          "name": "values",
          "type": "uint256[]"
        },
        {
          "internalType": "bytes",
          "name": "data",
          "type": "bytes"
        }
      ],
      "name": "safeBatchTransferFrom",
      "outputs": [],
      "stateMutability": "nonpayable",
      "type": "function"
    },
    {
      "inputs": [
        {
          "internalType": "address",
          "name": "from",
          "type": "address"
        },
        {
          "internalType": "address",
          "name": "to",
          "type": "address"
        },
        {
          "internalType": "uint256",
          "name": "id",
          "type": "uint256"
        },
        {
          "internalType": "uint256",
          "name": "value",
          "type": "uint256"
        },
        {
          "internalType": "bytes",
          "name": "data",
          "type": "bytes"
        }
      ],
      "name": "safeTransferFrom",
      "outputs": [],
      "stateMutability": "nonpayable",
      "type": "function"
    },
    {
      "inputs": [
        {
          "internalType": "address",
          "name": "operator",
          "type": "address"
        },
        {
          "internalType": "bool",
          "name": "approved",
          "type": "bool"
        }
      ],
      "name": "setApprovalForAll",
      "outputs": [],
      "stateMutability": "nonpayable",
      "type": "function"
    },
    {
      "inputs": [
        {
          "internalType": "string",
          "name": "newuri",
          "type": "string"
        }
      ],
      "name": "setURI",
      "outputs": [],
      "stateMutability": "nonpayable",
      "type": "function"
    },
    {
      "inputs": [
        {
          "internalType": "bytes4",
          "name": "interfaceId",
          "type": "bytes4"
        }
      ],
      "name": "supportsInterface",
      "outputs": [
        {
          "internalType": "bool",
          "name": "",
          "type": "bool"
        }
      ],
      "stateMutability": "view",
      "type": "function"
    },
    {
      "inputs": [],
      "name": "totalSupply",
      "outputs": [
        {
          "internalType": "uint256",
          "name": "",
          "type": "uint256"
        }
      ],
      "stateMutability": "view",
      "type": "function"
    },
    {
      "inputs": [
        {
          "internalType": "uint256",
          "name": "id",
          "type": "uint256"
        }
      ],
      "name": "totalSupply",
      "outputs": [
        {
          "internalType": "uint256",
          "name": "",
          "type": "uint256"
        }
      ],
      "stateMutability": "view",
      "type": "function"
    },
    {
      "inputs": [
        {
          "internalType": "address",
          "name": "newOwner",
          "type": "address"
        }
      ],
      "name": "transferOwnership",
      "outputs": [],
      "stateMutability": "nonpayable",
      "type": "function"
    },
    {
      "inputs": [],
      "name": "unpause",
      "outputs": [],
      "stateMutability": "nonpayable",
      "type": "function"
    },
    {
      "inputs": [
        {
          "internalType": "uint256",
          "name": "",
          "type": "uint256"
        }
      ],
      "name": "uri",
      "outputs": [
        {
          "internalType": "string",
          "name": "",
          "type": "string"
        }
      ],
      "stateMutability": "view",
      "type": "function"
    }
  ],
  "bytecode": "0x608060405234801561000f575f5ffd5b5060405161216738038061216783398101604081905261002e916100ea565b60408051602081019091525f8152819061004781610089565b506001600160a01b03811661007557604051631e4fbdf760e01b81525f600482015260240160405180910390fd5b61007e81610099565b50505f600655610269565b600261009582826101af565b5050565b600380546001600160a01b038381166001600160a01b0319831681179093556040519116919082907f8be0079c531659141344cd1fd0a4f28419497f9722a3daafe3b4186f6b6457e0905f90a35050565b5f602082840312156100fa575f5ffd5b81516001600160a01b0381168114610110575f5ffd5b9392505050565b634e487b7160e01b5f52604160045260245ffd5b600181811c9082168061013f57607f821691505b60208210810361015d57634e487b7160e01b5f52602260045260245ffd5b50919050565b601f8211156101aa57805f5260205f20601f840160051c810160208510156101885750805b601f840160051c820191505b818110156101a7575f8155600101610194565b50505b505050565b81516001600160401b038111156101c8576101c8610117565b6101dc816101d6845461012b565b84610163565b6020601f82116001811461020e575f83156101f75750848201515b5f19600385901b1c1916600184901b1784556101a7565b5f84815260208120601f198516915b8281101561023d578785015182556020948501946001909201910161021d565b508482101561025a57868401515f19600387901b60f8161c191681555b50505050600190811b01905550565b611ef1806102765f395ff3fe60806040526004361061017a575f3560e01c8063715018a6116100cd578063a250b8e611610087578063e985e9c511610062578063e985e9c51461043a578063f242432a14610459578063f2fde38b14610478578063f5298aca14610497575f5ffd5b8063a250b8e6146103dc578063bd85b039146103fb578063c1705b8414610426575f5ffd5b8063715018a61461033c578063731133e9146103505780638456cb591461036f5780638da5cb5b146103835780639feb6ed1146103aa578063a22cb465146103bd575f5ffd5b80632eb2c2d6116101385780634f558e79116101135780634f558e79146102be57806359c60d9f146102eb5780635c975abb146102ff5780636b20c4541461031d575f5ffd5b80632eb2c2d61461025f5780633f4ba83a1461027e5780634e1273f414610292575f5ffd5b8062fdd58e1461017e57806301ffc9a7146101b057806302fe5305146101df5780630e89341c1461020057806318160ddd1461022c5780631f7fdffa14610240575b5f5ffd5b348015610189575f5ffd5b5061019d61019836600461159d565b6104b6565b6040519081526020015b60405180910390f35b3480156101bb575f5ffd5b506101cf6101ca3660046115da565b6104dd565b60405190151581526020016101a7565b3480156101ea575f5ffd5b506101fe6101f9366004611698565b61052c565b005b34801561020b575f5ffd5b5061021f61021a3660046116e4565b610540565b6040516101a79190611729565b348015610237575f5ffd5b5060055461019d565b34801561024b575f5ffd5b506101fe61025a3660046117e5565b6105d2565b34801561026a575f5ffd5b506101fe610279366004611881565b6105ec565b348015610289575f5ffd5b506101fe610658565b34801561029d575f5ffd5b506102b16102ac36600461192d565b61066a565b6040516101a79190611a28565b3480156102c9575f5ffd5b506101cf6102d83660046116e4565b5f90815260046020526040902054151590565b3480156102f6575f5ffd5b5061019d600181565b34801561030a575f5ffd5b50600354600160a01b900460ff166101cf565b348015610328575f5ffd5b506101fe610337366004611a3a565b610734565b348015610347575f5ffd5b506101fe610798565b34801561035b575f5ffd5b506101fe61036a366004611aac565b6107a9565b34801561037a575f5ffd5b506101fe6107bd565b34801561038e575f5ffd5b506003546040516001600160a01b0390911681526020016101a7565b6102b16103b83660046116e4565b6107cd565b3480156103c8575f5ffd5b506101fe6103d7366004611af0565b610835565b3480156103e7575f5ffd5b506102b16103f636600461159d565b610844565b348015610406575f5ffd5b5061019d6104153660046116e4565b5f9081526004602052604090205490565b348015610431575f5ffd5b5061019d601481565b348015610445575f5ffd5b506101cf610454366004611b29565b610a45565b348015610464575f5ffd5b506101fe610473366004611b5a565b610a72565b348015610483575f5ffd5b506101fe610492366004611bad565b610ad1565b3480156104a2575f5ffd5b506101fe6104b1366004611bc6565b610b0b565b5f818152602081815260408083206001600160a01b03861684529091529020545b92915050565b5f6001600160e01b03198216636cdb3d1360e11b148061050d57506001600160e01b031982166303a24d0760e21b145b806104d757506301ffc9a760e01b6001600160e01b03198316146104d7565b610534610b41565b61053d81610b6e565b50565b60606002805461054f90611bf6565b80601f016020809104026020016040519081016040528092919081815260200182805461057b90611bf6565b80156105c65780601f1061059d576101008083540402835291602001916105c6565b820191905f5260205f20905b8154815290600101906020018083116105a957829003601f168201915b50505050509050919050565b6105da610b41565b6105e684848484610b7a565b50505050565b336001600160a01b038616811480159061060d575061060b8682610a45565b155b156106435760405163711bec9160e11b81526001600160a01b038083166004830152871660248201526044015b60405180910390fd5b6106508686868686610bb0565b505050505050565b610660610b41565b610668610c15565b565b6060815183511461069b5781518351604051635b05999160e01b81526004810192909252602482015260440161063a565b5f83516001600160401b038111156106b5576106b56115fc565b6040519080825280602002602001820160405280156106de578160200160208202803683370190505b5090505f5b845181101561072c57602080820286010151610707906020808402870101516104b6565b82828151811061071957610719611c2e565b60209081029190910101526001016106e3565b509392505050565b6001600160a01b038316331480159061075457506107528333610a45565b155b1561078857335b60405163711bec9160e11b81526001600160a01b039182166004820152908416602482015260440161063a565b610793838383610c6a565b505050565b6107a0610b41565b6106685f610cad565b6107b1610b41565b6105e684848484610cfe565b6107c5610b41565b610668610d59565b60605f821180156107df5750600a8211155b61082b5760405162461bcd60e51b815260206004820152601d60248201527f496e76616c6964206e756d626572206f66204e4654732028312d313029000000604482015260640161063a565b6104d73383610844565b610840338383610d9c565b5050565b606061084e610b41565b6001600160a01b0383166108a45760405162461bcd60e51b815260206004820152601b60248201527f43616e6e6f74206d696e7420746f207a65726f20616464726573730000000000604482015260640161063a565b5f821180156108b45750600a8211155b6109005760405162461bcd60e51b815260206004820152601d60248201527f496e76616c6964206e756d626572206f66204e4654732028312d353029000000604482015260640161063a565b816001600160401b03811115610918576109186115fc565b604051908082528060200260200182016040528015610941578160200160208202803683370190505b5090505f826001600160401b0381111561095d5761095d6115fc565b604051908082528060200260200182016040528015610986578160200160208202803683370190505b5090505f5b838110156109e05761099b610e30565b8382815181106109ad576109ad611c2e565b60200260200101818152505060018282815181106109cd576109cd611c2e565b602090810291909101015260010161098b565b506109fb84838360405180602001604052805f815250610b7a565b836001600160a01b03167fb966c82d18e893494e0313dcdb63a93cd5f344a860dae60a2f3ec095c8e35e628342604051610a36929190611c42565b60405180910390a25092915050565b6001600160a01b039182165f90815260016020908152604080832093909416825291909152205460ff1690565b336001600160a01b0386168114801590610a935750610a918682610a45565b155b15610ac45760405163711bec9160e11b81526001600160a01b0380831660048301528716602482015260440161063a565b6106508686868686610ed3565b610ad9610b41565b6001600160a01b038116610b0257604051631e4fbdf760e01b81525f600482015260240161063a565b61053d81610cad565b6001600160a01b0383163314801590610b2b5750610b298333610a45565b155b15610b36573361075b565b610793838383610f5f565b6003546001600160a01b031633146106685760405163118cdaa760e01b815233600482015260240161063a565b60026108408282611ca7565b6001600160a01b038416610ba357604051632bfa23e760e11b81525f600482015260240161063a565b6105e65f85858585610fc1565b6001600160a01b038416610bd957604051632bfa23e760e11b81525f600482015260240161063a565b6001600160a01b038516610c0157604051626a0d4560e21b81525f600482015260240161063a565b610c0e8585858585610fc1565b5050505050565b610c1d611014565b6003805460ff60a01b191690557f5db9ee0a495bf2e6ff9c91a7834c1ba4fdd244a5e8aa4e537bd38aeae4b073aa335b6040516001600160a01b03909116815260200160405180910390a1565b6001600160a01b038316610c9257604051626a0d4560e21b81525f600482015260240161063a565b610793835f848460405180602001604052805f815250610fc1565b600380546001600160a01b038381166001600160a01b0319831681179093556040519116919082907f8be0079c531659141344cd1fd0a4f28419497f9722a3daafe3b4186f6b6457e0905f90a35050565b6001600160a01b038416610d2757604051632bfa23e760e11b81525f600482015260240161063a565b604080516001808252602082018690528183019081526060820185905260808201909252906106505f87848487610fc1565b610d6161103e565b6003805460ff60a01b1916600160a01b1790557f62e78cea01bee320cd4e420270b5ea74000d11b0c9f74754ebdbfc544b05a258610c4d3390565b6001600160a01b038216610dc45760405162ced3e160e81b81525f600482015260240161063a565b6001600160a01b038381165f81815260016020908152604080832094871680845294825291829020805460ff191686151590811790915591519182527f17307eab39ab6107e8899845ad3d59bd9653f200f220920489ca2b5937696c31910160405180910390a3505050565b600680545f9182610e4083611d75565b91905055505f424433600654604051602001610e879493929190938452602084019290925260601b6bffffffffffffffffffffffff19166040830152605482015260740190565b60408051601f19818403018152919052805160209091012090506001610eae816014611d8d565b610eb9906001611da0565b610ec39083611db3565b610ecd9190611da0565b91505090565b6001600160a01b038416610efc57604051632bfa23e760e11b81525f600482015260240161063a565b6001600160a01b038516610f2457604051626a0d4560e21b81525f600482015260240161063a565b60408051600180825260208201869052818301908152606082018590526080820190925290610f568787848487610fc1565b50505050505050565b6001600160a01b038316610f8757604051626a0d4560e21b81525f600482015260240161063a565b604080516001808252602082018590528183019081526060820184905260a082019092525f60808201818152919291610c0e918791859085905b610fcd85858585611069565b6001600160a01b03841615610c0e57825133906001036110065760208481015190840151610fff838989858589611075565b5050610650565b610650818787878787611196565b600354600160a01b900460ff1661066857604051638dfc202b60e01b815260040160405180910390fd5b600354600160a01b900460ff16156106685760405163d93c066560e01b815260040160405180910390fd5b6105e68484848461127d565b6001600160a01b0384163b156106505760405163f23a6e6160e01b81526001600160a01b0385169063f23a6e61906110b99089908990889088908890600401611dd2565b6020604051808303815f875af19250505080156110f3575060408051601f3d908101601f191682019092526110f091810190611e16565b60015b61115a573d808015611120576040519150601f19603f3d011682016040523d82523d5f602084013e611125565b606091505b5080515f0361115257604051632bfa23e760e11b81526001600160a01b038616600482015260240161063a565b805160208201fd5b6001600160e01b0319811663f23a6e6160e01b14610f5657604051632bfa23e760e11b81526001600160a01b038616600482015260240161063a565b6001600160a01b0384163b156106505760405163bc197c8160e01b81526001600160a01b0385169063bc197c81906111da9089908990889088908890600401611e31565b6020604051808303815f875af1925050508015611214575060408051601f3d908101601f1916820190925261121191810190611e16565b60015b611241573d808015611120576040519150601f19603f3d011682016040523d82523d5f602084013e611125565b6001600160e01b0319811663bc197c8160e01b14610f5657604051632bfa23e760e11b81526001600160a01b038616600482015260240161063a565b61128984848484611364565b6001600160a01b038416611306575f805b83518110156112ed5760208181028481018201519086018201515f9081526004909252604082208054919283926112d2908490611da0565b909155506112e290508184611da0565b92505060010161129a565b508060055f8282546112ff9190611da0565b9091555050505b6001600160a01b0383166105e6575f805b83518110156113535760208181028481018201519086018201515f90815260049092526040909120805482900390559190910190600101611317565b506005805491909103905550505050565b61136c61103e565b6105e68484848480518251146113a25781518151604051635b05999160e01b81526004810192909252602482015260440161063a565b335f5b83518110156114a4576020818102858101820151908501909101516001600160a01b03881615611456575f828152602081815260408083206001600160a01b038c16845290915290205481811015611430576040516303dee4c560e01b81526001600160a01b038a16600482015260248101829052604481018390526064810184905260840161063a565b5f838152602081815260408083206001600160a01b038d16845290915290209082900390555b6001600160a01b0387161561149a575f828152602081815260408083206001600160a01b038b16845290915281208054839290611494908490611da0565b90915550505b50506001016113a5565b5082516001036115245760208301515f906020840151909150856001600160a01b0316876001600160a01b0316846001600160a01b03167fc3d58168c5ae7397731d063d5bbf3d657854427343f4c083240f7aacaa2d0f628585604051611515929190918252602082015260400190565b60405180910390a45050610c0e565b836001600160a01b0316856001600160a01b0316826001600160a01b03167f4a39dc06d4c0dbc64b70af90fd698a233a518aa5d07e595d983b8c0526c8f7fb8686604051611573929190611e8e565b60405180910390a45050505050565b80356001600160a01b0381168114611598575f5ffd5b919050565b5f5f604083850312156115ae575f5ffd5b6115b783611582565b946020939093013593505050565b6001600160e01b03198116811461053d575f5ffd5b5f602082840312156115ea575f5ffd5b81356115f5816115c5565b9392505050565b634e487b7160e01b5f52604160045260245ffd5b604051601f8201601f191681016001600160401b0381118282101715611638576116386115fc565b604052919050565b5f5f6001600160401b03841115611659576116596115fc565b50601f8301601f191660200161166e81611610565b915050828152838383011115611682575f5ffd5b828260208301375f602084830101529392505050565b5f602082840312156116a8575f5ffd5b81356001600160401b038111156116bd575f5ffd5b8201601f810184136116cd575f5ffd5b6116dc84823560208401611640565b949350505050565b5f602082840312156116f4575f5ffd5b5035919050565b5f81518084528060208401602086015e5f602082860101526020601f19601f83011685010191505092915050565b602081525f6115f560208301846116fb565b5f6001600160401b03821115611753576117536115fc565b5060051b60200190565b5f82601f83011261176c575f5ffd5b813561177f61177a8261173b565b611610565b8082825260208201915060208360051b8601019250858311156117a0575f5ffd5b602085015b838110156117bd5780358352602092830192016117a5565b5095945050505050565b5f82601f8301126117d6575f5ffd5b6115f583833560208501611640565b5f5f5f5f608085870312156117f8575f5ffd5b61180185611582565b935060208501356001600160401b0381111561181b575f5ffd5b6118278782880161175d565b93505060408501356001600160401b03811115611842575f5ffd5b61184e8782880161175d565b92505060608501356001600160401b03811115611869575f5ffd5b611875878288016117c7565b91505092959194509250565b5f5f5f5f5f60a08688031215611895575f5ffd5b61189e86611582565b94506118ac60208701611582565b935060408601356001600160401b038111156118c6575f5ffd5b6118d28882890161175d565b93505060608601356001600160401b038111156118ed575f5ffd5b6118f98882890161175d565b92505060808601356001600160401b03811115611914575f5ffd5b611920888289016117c7565b9150509295509295909350565b5f5f6040838503121561193e575f5ffd5b82356001600160401b03811115611953575f5ffd5b8301601f81018513611963575f5ffd5b803561197161177a8261173b565b8082825260208201915060208360051b850101925087831115611992575f5ffd5b6020840193505b828410156119bb576119aa84611582565b825260209384019390910190611999565b945050505060208301356001600160401b038111156119d8575f5ffd5b6119e48582860161175d565b9150509250929050565b5f8151808452602084019350602083015f5b82811015611a1e578151865260209586019590910190600101611a00565b5093949350505050565b602081525f6115f560208301846119ee565b5f5f5f60608486031215611a4c575f5ffd5b611a5584611582565b925060208401356001600160401b03811115611a6f575f5ffd5b611a7b8682870161175d565b92505060408401356001600160401b03811115611a96575f5ffd5b611aa28682870161175d565b9150509250925092565b5f5f5f5f60808587031215611abf575f5ffd5b611ac885611582565b9350602085013592506040850135915060608501356001600160401b03811115611869575f5ffd5b5f5f60408385031215611b01575f5ffd5b611b0a83611582565b915060208301358015158114611b1e575f5ffd5b809150509250929050565b5f5f60408385031215611b3a575f5ffd5b611b4383611582565b9150611b5160208401611582565b90509250929050565b5f5f5f5f5f60a08688031215611b6e575f5ffd5b611b7786611582565b9450611b8560208701611582565b9350604086013592506060860135915060808601356001600160401b03811115611914575f5ffd5b5f60208284031215611bbd575f5ffd5b6115f582611582565b5f5f5f60608486031215611bd8575f5ffd5b611be184611582565b95602085013595506040909401359392505050565b600181811c90821680611c0a57607f821691505b602082108103611c2857634e487b7160e01b5f52602260045260245ffd5b50919050565b634e487b7160e01b5f52603260045260245ffd5b604081525f611c5460408301856119ee565b90508260208301529392505050565b601f82111561079357805f5260205f20601f840160051c81016020851015611c885750805b601f840160051c820191505b81811015610c0e575f8155600101611c94565b81516001600160401b03811115611cc057611cc06115fc565b611cd481611cce8454611bf6565b84611c63565b6020601f821160018114611d06575f8315611cef5750848201515b5f19600385901b1c1916600184901b178455610c0e565b5f84815260208120601f198516915b82811015611d355787850151825560209485019460019092019101611d15565b5084821015611d5257868401515f19600387901b60f8161c191681555b50505050600190811b01905550565b634e487b7160e01b5f52601160045260245ffd5b5f60018201611d8657611d86611d61565b5060010190565b818103818111156104d7576104d7611d61565b808201808211156104d7576104d7611d61565b5f82611dcd57634e487b7160e01b5f52601260045260245ffd5b500690565b6001600160a01b03868116825285166020820152604081018490526060810183905260a0608082018190525f90611e0b908301846116fb565b979650505050505050565b5f60208284031215611e26575f5ffd5b81516115f5816115c5565b6001600160a01b0386811682528516602082015260a0604082018190525f90611e5c908301866119ee565b8281036060840152611e6e81866119ee565b90508281036080840152611e8281856116fb565b98975050505050505050565b604081525f611ea060408301856119ee565b8281036020840152611eb281856119ee565b9594505050505056fea2646970667358221220738557493f08bc8bba8ceb4053cb9b389e8650711214b6c33f5b6764547e67ac64736f6c634300081c0033",
  "linkReferences": {},
  "deployedLinkReferences": {},
  "immutableReferences": {},
  "inputSourceName": "project/contracts/Lord.sol",
  "buildInfoId": "solc-0_8_28-6e8a528ef62d58c32d3756b388ef85613d8436ec"
}