{
  "_format": "hh3-artifact-1",
  "contractName": "Lord",
  "sourceName": "contracts/Lord.sol",
  "abi": [
    {
      "inputs": [
        {
          "internalType": "address",
          "name": "initialOwner",
          "type": "address"
        }
      ],
      "stateMutability": "nonpayable",
      "type": "constructor"
    },
    {
      "inputs": [
        {
          "internalType": "address",
          "name": "sender",
          "type": "address"
        },
        {
          "internalType": "uint256",
          "name": "balance",
          "type": "uint256"
        },
        {
          "internalType": "uint256",
          "name": "needed",
          "type": "uint256"
        },
        {
          "internalType": "uint256",
          "name": "tokenId",
          "type": "uint256"
        }
      ],
      "name": "ERC1155InsufficientBalance",
      "type": "error"
    },
    {
      "inputs": [
        {
          "internalType": "address",
          "name": "approver",
          "type": "address"
        }
      ],
      "name": "ERC1155InvalidApprover",
      "type": "error"
    },
    {
      "inputs": [
        {
          "internalType": "uint256",
          "name": "idsLength",
          "type": "uint256"
        },
        {
          "internalType": "uint256",
          "name": "valuesLength",
          "type": "uint256"
        }
      ],
      "name": "ERC1155InvalidArrayLength",
      "type": "error"
    },
    {
      "inputs": [
        {
          "internalType": "address",
          "name": "operator",
          "type": "address"
        }
      ],
      "name": "ERC1155InvalidOperator",
      "type": "error"
    },
    {
      "inputs": [
        {
          "internalType": "address",
          "name": "receiver",
          "type": "address"
        }
      ],
      "name": "ERC1155InvalidReceiver",
      "type": "error"
    },
    {
      "inputs": [
        {
          "internalType": "address",
          "name": "sender",
          "type": "address"
        }
      ],
      "name": "ERC1155InvalidSender",
      "type": "error"
    },
    {
      "inputs": [
        {
          "internalType": "address",
          "name": "operator",
          "type": "address"
        },
        {
          "internalType": "address",
          "name": "owner",
          "type": "address"
        }
      ],
      "name": "ERC1155MissingApprovalForAll",
      "type": "error"
    },
    {
      "inputs": [],
      "name": "EnforcedPause",
      "type": "error"
    },
    {
      "inputs": [],
      "name": "ExpectedPause",
      "type": "error"
    },
    {
      "inputs": [
        {
          "internalType": "address",
          "name": "owner",
          "type": "address"
        }
      ],
      "name": "OwnableInvalidOwner",
      "type": "error"
    },
    {
      "inputs": [
        {
          "internalType": "address",
          "name": "account",
          "type": "address"
        }
      ],
      "name": "OwnableUnauthorizedAccount",
      "type": "error"
    },
    {
      "anonymous": false,
      "inputs": [
        {
          "indexed": true,
          "internalType": "address",
          "name": "account",
          "type": "address"
        },
        {
          "indexed": true,
          "internalType": "address",
          "name": "operator",
          "type": "address"
        },
        {
          "indexed": false,
          "internalType": "bool",
          "name": "approved",
          "type": "bool"
        }
      ],
      "name": "ApprovalForAll",
      "type": "event"
    },
    {
      "anonymous": false,
      "inputs": [
        {
          "indexed": true,
          "internalType": "address",
          "name": "user",
          "type": "address"
        },
        {
          "indexed": false,
          "internalType": "uint256[]",
          "name": "characterIds",
          "type": "uint256[]"
        },
        {
          "indexed": false,
          "internalType": "uint256",
          "name": "timestamp",
          "type": "uint256"
        }
      ],
      "name": "GachaMint",
      "type": "event"
    },
    {
      "anonymous": false,
      "inputs": [
        {
          "indexed": true,
          "internalType": "address",
          "name": "previousOwner",
          "type": "address"
        },
        {
          "indexed": true,
          "internalType": "address",
          "name": "newOwner",
          "type": "address"
        }
      ],
      "name": "OwnershipTransferred",
      "type": "event"
    },
    {
      "anonymous": false,
      "inputs": [
        {
          "indexed": false,
          "internalType": "address",
          "name": "account",
          "type": "address"
        }
      ],
      "name": "Paused",
      "type": "event"
    },
    {
      "anonymous": false,
      "inputs": [
        {
          "indexed": true,
          "internalType": "address",
          "name": "operator",
          "type": "address"
        },
        {
          "indexed": true,
          "internalType": "address",
          "name": "from",
          "type": "address"
        },
        {
          "indexed": true,
          "internalType": "address",
          "name": "to",
          "type": "address"
        },
        {
          "indexed": false,
          "internalType": "uint256[]",
          "name": "ids",
          "type": "uint256[]"
        },
        {
          "indexed": false,
          "internalType": "uint256[]",
          "name": "values",
          "type": "uint256[]"
        }
      ],
      "name": "TransferBatch",
      "type": "event"
    },
    {
      "anonymous": false,
      "inputs": [
        {
          "indexed": true,
          "internalType": "address",
          "name": "operator",
          "type": "address"
        },
        {
          "indexed": true,
          "internalType": "address",
          "name": "from",
          "type": "address"
        },
        {
          "indexed": true,
          "internalType": "address",
          "name": "to",
          "type": "address"
        },
        {
          "indexed": false,
          "internalType": "uint256",
          "name": "id",
          "type": "uint256"
        },
        {
          "indexed": false,
          "internalType": "uint256",
          "name": "value",
          "type": "uint256"
        }
      ],
      "name": "TransferSingle",
      "type": "event"
    },
    {
      "anonymous": false,
      "inputs": [
        {
          "indexed": false,
          "internalType": "string",
          "name": "value",
          "type": "string"
        },
        {
          "indexed": true,
          "internalType": "uint256",
          "name": "id",
          "type": "uint256"
        }
      ],
      "name": "URI",
      "type": "event"
    },
    {
      "anonymous": false,
      "inputs": [
        {
          "indexed": false,
          "internalType": "address",
          "name": "account",
          "type": "address"
        }
      ],
      "name": "Unpaused",
      "type": "event"
    },
    {
      "inputs": [],
      "name": "MAX_CHARACTER_ID",
      "outputs": [
        {
          "internalType": "uint256",
          "name": "",
          "type": "uint256"
        }
      ],
      "stateMutability": "view",
      "type": "function"
    },
    {
      "inputs": [],
      "name": "MIN_CHARACTER_ID",
      "outputs": [
        {
          "internalType": "uint256",
          "name": "",
          "type": "uint256"
        }
      ],
      "stateMutability": "view",
      "type": "function"
    },
    {
      "inputs": [
        {
          "internalType": "address",
          "name": "account",
          "type": "address"
        },
        {
          "internalType": "uint256",
          "name": "id",
          "type": "uint256"
        }
      ],
      "name": "balanceOf",
      "outputs": [
        {
          "internalType": "uint256",
          "name": "",
          "type": "uint256"
        }
      ],
      "stateMutability": "view",
      "type": "function"
    },
    {
      "inputs": [
        {
          "internalType": "address[]",
          "name": "accounts",
          "type": "address[]"
        },
        {
          "internalType": "uint256[]",
          "name": "ids",
          "type": "uint256[]"
        }
      ],
      "name": "balanceOfBatch",
      "outputs": [
        {
          "internalType": "uint256[]",
          "name": "",
          "type": "uint256[]"
        }
      ],
      "stateMutability": "view",
      "type": "function"
    },
    {
      "inputs": [
        {
          "internalType": "address",
          "name": "account",
          "type": "address"
        },
        {
          "internalType": "uint256",
          "name": "id",
          "type": "uint256"
        },
        {
          "internalType": "uint256",
          "name": "value",
          "type": "uint256"
        }
      ],
      "name": "burn",
      "outputs": [],
      "stateMutability": "nonpayable",
      "type": "function"
    },
    {
      "inputs": [
        {
          "internalType": "address",
          "name": "account",
          "type": "address"
        },
        {
          "internalType": "uint256[]",
          "name": "ids",
          "type": "uint256[]"
        },
        {
          "internalType": "uint256[]",
          "name": "values",
          "type": "uint256[]"
        }
      ],
      "name": "burnBatch",
      "outputs": [],
      "stateMutability": "nonpayable",
      "type": "function"
    },
    {
      "inputs": [
        {
          "internalType": "uint256",
          "name": "id",
          "type": "uint256"
        }
      ],
      "name": "exists",
      "outputs": [
        {
          "internalType": "bool",
          "name": "",
          "type": "bool"
        }
      ],
      "stateMutability": "view",
      "type": "function"
    },
    {
      "inputs": [
        {
          "internalType": "address",
          "name": "user",
          "type": "address"
        },
        {
          "internalType": "uint256",
          "name": "numberOfNFTs",
          "type": "uint256"
        }
      ],
      "name": "gachaMint",
      "outputs": [
        {
          "internalType": "uint256[]",
          "name": "characterIds",
          "type": "uint256[]"
        }
      ],
      "stateMutability": "nonpayable",
      "type": "function"
    },
    {
      "inputs": [
        {
          "internalType": "address",
          "name": "user",
          "type": "address"
        },
        {
          "internalType": "uint256[]",
          "name": "tokenIds",
          "type": "uint256[]"
        }
      ],
      "name": "getUserBalances",
      "outputs": [
        {
          "internalType": "uint256[]",
          "name": "balances",
          "type": "uint256[]"
        }
      ],
      "stateMutability": "view",
      "type": "function"
    },
    {
      "inputs": [
        {
          "internalType": "address",
          "name": "user",
          "type": "address"
        }
      ],
      "name": "getUserNFTIds",
      "outputs": [
        {
          "internalType": "uint256[]",
          "name": "ownedIds",
          "type": "uint256[]"
        }
      ],
      "stateMutability": "view",
      "type": "function"
    },
    {
      "inputs": [
        {
          "internalType": "address",
          "name": "user",
          "type": "address"
        }
      ],
      "name": "getUserNFTTypeCount",
      "outputs": [
        {
          "internalType": "uint256",
          "name": "count",
          "type": "uint256"
        }
      ],
      "stateMutability": "view",
      "type": "function"
    },
    {
      "inputs": [
        {
          "internalType": "address",
          "name": "user",
          "type": "address"
        }
      ],
      "name": "getUserNFTs",
      "outputs": [
        {
          "internalType": "uint256[]",
          "name": "ownedIds",
          "type": "uint256[]"
        },
        {
          "internalType": "uint256[]",
          "name": "balances",
          "type": "uint256[]"
        }
      ],
      "stateMutability": "view",
      "type": "function"
    },
    {
      "inputs": [
        {
          "internalType": "address",
          "name": "user",
          "type": "address"
        }
      ],
      "name": "getUserTotalNFTCount",
      "outputs": [
        {
          "internalType": "uint256",
          "name": "totalNFTs",
          "type": "uint256"
        }
      ],
      "stateMutability": "view",
      "type": "function"
    },
    {
      "inputs": [
        {
          "internalType": "address",
          "name": "account",
          "type": "address"
        },
        {
          "internalType": "address",
          "name": "operator",
          "type": "address"
        }
      ],
      "name": "isApprovedForAll",
      "outputs": [
        {
          "internalType": "bool",
          "name": "",
          "type": "bool"
        }
      ],
      "stateMutability": "view",
      "type": "function"
    },
    {
      "inputs": [
        {
          "internalType": "address",
          "name": "account",
          "type": "address"
        },
        {
          "internalType": "uint256",
          "name": "id",
          "type": "uint256"
        },
        {
          "internalType": "uint256",
          "name": "amount",
          "type": "uint256"
        },
        {
          "internalType": "bytes",
          "name": "data",
          "type": "bytes"
        }
      ],
      "name": "mint",
      "outputs": [],
      "stateMutability": "nonpayable",
      "type": "function"
    },
    {
      "inputs": [
        {
          "internalType": "address",
          "name": "to",
          "type": "address"
        },
        {
          "internalType": "uint256[]",
          "name": "ids",
          "type": "uint256[]"
        },
        {
          "internalType": "uint256[]",
          "name": "amounts",
          "type": "uint256[]"
        },
        {
          "internalType": "bytes",
          "name": "data",
          "type": "bytes"
        }
      ],
      "name": "mintBatch",
      "outputs": [],
      "stateMutability": "nonpayable",
      "type": "function"
    },
    {
      "inputs": [],
      "name": "owner",
      "outputs": [
        {
          "internalType": "address",
          "name": "",
          "type": "address"
        }
      ],
      "stateMutability": "view",
      "type": "function"
    },
    {
      "inputs": [],
      "name": "pause",
      "outputs": [],
      "stateMutability": "nonpayable",
      "type": "function"
    },
    {
      "inputs": [],
      "name": "paused",
      "outputs": [
        {
          "internalType": "bool",
          "name": "",
          "type": "bool"
        }
      ],
      "stateMutability": "view",
      "type": "function"
    },
    {
      "inputs": [
        {
          "internalType": "uint256",
          "name": "numberOfNFTs",
          "type": "uint256"
        }
      ],
      "name": "publicGachaMint",
      "outputs": [
        {
          "internalType": "uint256[]",
          "name": "characterIds",
          "type": "uint256[]"
        }
      ],
      "stateMutability": "payable",
      "type": "function"
    },
    {
      "inputs": [],
      "name": "renounceOwnership",
      "outputs": [],
      "stateMutability": "nonpayable",
      "type": "function"
    },
    {
      "inputs": [
        {
          "internalType": "address",
          "name": "from",
          "type": "address"
        },
        {
          "internalType": "address",
          "name": "to",
          "type": "address"
        },
        {
          "internalType": "uint256[]",
          "name": "ids",
          "type": "uint256[]"
        },
        {
          "internalType": "uint256[]",
          "name": "values",
          "type": "uint256[]"
        },
        {
          "internalType": "bytes",
          "name": "data",
          "type": "bytes"
        }
      ],
      "name": "safeBatchTransferFrom",
      "outputs": [],
      "stateMutability": "nonpayable",
      "type": "function"
    },
    {
      "inputs": [
        {
          "internalType": "address",
          "name": "from",
          "type": "address"
        },
        {
          "internalType": "address",
          "name": "to",
          "type": "address"
        },
        {
          "internalType": "uint256",
          "name": "id",
          "type": "uint256"
        },
        {
          "internalType": "uint256",
          "name": "value",
          "type": "uint256"
        },
        {
          "internalType": "bytes",
          "name": "data",
          "type": "bytes"
        }
      ],
      "name": "safeTransferFrom",
      "outputs": [],
      "stateMutability": "nonpayable",
      "type": "function"
    },
    {
      "inputs": [
        {
          "internalType": "address",
          "name": "operator",
          "type": "address"
        },
        {
          "internalType": "bool",
          "name": "approved",
          "type": "bool"
        }
      ],
      "name": "setApprovalForAll",
      "outputs": [],
      "stateMutability": "nonpayable",
      "type": "function"
    },
    {
      "inputs": [
        {
          "internalType": "string",
          "name": "newuri",
          "type": "string"
        }
      ],
      "name": "setURI",
      "outputs": [],
      "stateMutability": "nonpayable",
      "type": "function"
    },
    {
      "inputs": [
        {
          "internalType": "bytes4",
          "name": "interfaceId",
          "type": "bytes4"
        }
      ],
      "name": "supportsInterface",
      "outputs": [
        {
          "internalType": "bool",
          "name": "",
          "type": "bool"
        }
      ],
      "stateMutability": "view",
      "type": "function"
    },
    {
      "inputs": [],
      "name": "totalSupply",
      "outputs": [
        {
          "internalType": "uint256",
          "name": "",
          "type": "uint256"
        }
      ],
      "stateMutability": "view",
      "type": "function"
    },
    {
      "inputs": [
        {
          "internalType": "uint256",
          "name": "id",
          "type": "uint256"
        }
      ],
      "name": "totalSupply",
      "outputs": [
        {
          "internalType": "uint256",
          "name": "",
          "type": "uint256"
        }
      ],
      "stateMutability": "view",
      "type": "function"
    },
    {
      "inputs": [
        {
          "internalType": "address",
          "name": "newOwner",
          "type": "address"
        }
      ],
      "name": "transferOwnership",
      "outputs": [],
      "stateMutability": "nonpayable",
      "type": "function"
    },
    {
      "inputs": [],
      "name": "unpause",
      "outputs": [],
      "stateMutability": "nonpayable",
      "type": "function"
    },
    {
      "inputs": [
        {
          "internalType": "uint256",
          "name": "",
          "type": "uint256"
        }
      ],
      "name": "uri",
      "outputs": [
        {
          "internalType": "string",
          "name": "",
          "type": "string"
        }
      ],
      "stateMutability": "view",
      "type": "function"
    },
    {
      "inputs": [
        {
          "internalType": "address",
          "name": "user",
          "type": "address"
        },
        {
          "internalType": "uint256",
          "name": "tokenId",
          "type": "uint256"
        }
      ],
      "name": "userOwnsNFT",
      "outputs": [
        {
          "internalType": "bool",
          "name": "owned",
          "type": "bool"
        },
        {
          "internalType": "uint256",
          "name": "balance",
          "type": "uint256"
        }
      ],
      "stateMutability": "view",
      "type": "function"
    }
  ],
  "bytecode": "0x608060405234801561000f575f5ffd5b5060405161260238038061260283398101604081905261002e916100ea565b60408051602081019091525f8152819061004781610089565b506001600160a01b03811661007557604051631e4fbdf760e01b81525f600482015260240160405180910390fd5b61007e81610099565b50505f600655610269565b600261009582826101af565b5050565b600380546001600160a01b038381166001600160a01b0319831681179093556040519116919082907f8be0079c531659141344cd1fd0a4f28419497f9722a3daafe3b4186f6b6457e0905f90a35050565b5f602082840312156100fa575f5ffd5b81516001600160a01b0381168114610110575f5ffd5b9392505050565b634e487b7160e01b5f52604160045260245ffd5b600181811c9082168061013f57607f821691505b60208210810361015d57634e487b7160e01b5f52602260045260245ffd5b50919050565b601f8211156101aa57805f5260205f20601f840160051c810160208510156101885750805b601f840160051c820191505b818110156101a7575f8155600101610194565b50505b505050565b81516001600160401b038111156101c8576101c8610117565b6101dc816101d6845461012b565b84610163565b6020601f82116001811461020e575f83156101f75750848201515b5f19600385901b1c1916600184901b1784556101a7565b5f84815260208120601f198516915b8281101561023d578785015182556020948501946001909201910161021d565b508482101561025a57868401515f19600387901b60f8161c191681555b50505050600190811b01905550565b61238c806102765f395ff3fe6080604052600436106101da575f3560e01c8063715018a6116100fd578063bd85b03911610092578063e985e9c511610062578063e985e9c514610579578063f242432a14610598578063f2fde38b146105b7578063f5298aca146105d6575f5ffd5b8063bd85b039146104e5578063c1705b8414610510578063d94eba4314610524578063e6b1fa2a1461055a575f5ffd5b80639120ef83116100cd5780639120ef83146104755780639feb6ed114610494578063a22cb465146104a7578063a250b8e6146104c6575f5ffd5b8063715018a614610407578063731133e91461041b5780638456cb591461043a5780638da5cb5b1461044e575f5ffd5b80633dd3a8d41161017357806352de4ee51161014357806352de4ee51461038957806359c60d9f146103b65780635c975abb146103ca5780636b20c454146103e8575f5ffd5b80633dd3a8d4146102fd5780633f4ba83a1461031c5780634e1273f4146103305780634f558e791461035c575f5ffd5b8063166c2f1e116101ae578063166c2f1e1461028c57806318160ddd146102ab5780631f7fdffa146102bf5780632eb2c2d6146102de575f5ffd5b8062fdd58e146101de57806301ffc9a71461021057806302fe53051461023f5780630e89341c14610260575b5f5ffd5b3480156101e9575f5ffd5b506101fd6101f8366004611a0a565b6105f5565b6040519081526020015b60405180910390f35b34801561021b575f5ffd5b5061022f61022a366004611a47565b61061c565b6040519015158152602001610207565b34801561024a575f5ffd5b5061025e610259366004611b05565b61066b565b005b34801561026b575f5ffd5b5061027f61027a366004611b51565b61067f565b6040516102079190611b96565b348015610297575f5ffd5b506101fd6102a6366004611ba8565b610711565b3480156102b6575f5ffd5b506005546101fd565b3480156102ca575f5ffd5b5061025e6102d9366004611c6b565b610754565b3480156102e9575f5ffd5b5061025e6102f8366004611d07565b61076e565b348015610308575f5ffd5b506101fd610317366004611ba8565b6107da565b348015610327575f5ffd5b5061025e61080e565b34801561033b575f5ffd5b5061034f61034a366004611db3565b610820565b6040516102079190611eae565b348015610367575f5ffd5b5061022f610376366004611b51565b5f90815260046020526040902054151590565b348015610394575f5ffd5b506103a86103a3366004611ba8565b6108ea565b604051610207929190611ec0565b3480156103c1575f5ffd5b506101fd600181565b3480156103d5575f5ffd5b50600354600160a01b900460ff1661022f565b3480156103f3575f5ffd5b5061025e610402366004611eed565b610a8a565b348015610412575f5ffd5b5061025e610aee565b348015610426575f5ffd5b5061025e610435366004611f5f565b610aff565b348015610445575f5ffd5b5061025e610b13565b348015610459575f5ffd5b506003546040516001600160a01b039091168152602001610207565b348015610480575f5ffd5b5061034f61048f366004611fa3565b610b23565b61034f6104a2366004611b51565b610c16565b3480156104b2575f5ffd5b5061025e6104c1366004611fd7565b610c7e565b3480156104d1575f5ffd5b5061034f6104e0366004611a0a565b610c8d565b3480156104f0575f5ffd5b506101fd6104ff366004611b51565b5f9081526004602052604090205490565b34801561051b575f5ffd5b506101fd601481565b34801561052f575f5ffd5b5061054361053e366004611a0a565b610e8e565b604080519215158352602083019190915201610207565b348015610565575f5ffd5b5061034f610574366004611ba8565b610ea7565b348015610584575f5ffd5b5061022f610593366004612010565b610eb2565b3480156105a3575f5ffd5b5061025e6105b2366004612041565b610edf565b3480156105c2575f5ffd5b5061025e6105d1366004611ba8565b610f3e565b3480156105e1575f5ffd5b5061025e6105f0366004612094565b610f78565b5f818152602081815260408083206001600160a01b03861684529091529020545b92915050565b5f6001600160e01b03198216636cdb3d1360e11b148061064c57506001600160e01b031982166303a24d0760e21b145b8061061657506301ffc9a760e01b6001600160e01b0319831614610616565b610673610fae565b61067c81610fdb565b50565b60606002805461068e906120c4565b80601f01602080910402602001604051908101604052809291908181526020018280546106ba906120c4565b80156107055780601f106106dc57610100808354040283529160200191610705565b820191905f5260205f20905b8154815290600101906020018083116106e857829003601f168201915b50505050509050919050565b5f60015b6014811161074e575f61072884836105f5565b111561073c57816107388161210a565b9250505b806107468161210a565b915050610715565b50919050565b61075c610fae565b61076884848484610fe7565b50505050565b336001600160a01b038616811480159061078f575061078d8682610eb2565b155b156107c55760405163711bec9160e11b81526001600160a01b038083166004830152871660248201526044015b60405180910390fd5b6107d2868686868661101d565b505050505050565b5f60015b6014811161074e576107f083826105f5565b6107fa9083612122565b9150806108068161210a565b9150506107de565b610816610fae565b61081e611082565b565b606081518351146108515781518351604051635b05999160e01b8152600481019290925260248201526044016107bc565b5f83516001600160401b0381111561086b5761086b611a69565b604051908082528060200260200182016040528015610894578160200160208202803683370190505b5090505f5b84518110156108e2576020808202860101516108bd906020808402870101516105f5565b8282815181106108cf576108cf612135565b6020908102919091010152600101610899565b509392505050565b6060806001600160a01b03831661093f5760405162461bcd60e51b815260206004820152601960248201527843616e6e6f74207175657279207a65726f206164647265737360381b60448201526064016107bc565b5f60015b6014811161097c575f61095686836105f5565b111561096a57816109668161210a565b9250505b806109748161210a565b915050610943565b50806001600160401b0381111561099557610995611a69565b6040519080825280602002602001820160405280156109be578160200160208202803683370190505b509250806001600160401b038111156109d9576109d9611a69565b604051908082528060200260200182016040528015610a02578160200160208202803683370190505b5091505f60015b60148111610a82575f610a1c87836105f5565b90508015610a6f5781868481518110610a3757610a37612135565b60200260200101818152505080858481518110610a5657610a56612135565b602090810291909101015282610a6b8161210a565b9350505b5080610a7a8161210a565b915050610a09565b505050915091565b6001600160a01b0383163314801590610aaa5750610aa88333610eb2565b155b15610ade57335b60405163711bec9160e11b81526001600160a01b03918216600482015290841660248201526044016107bc565b610ae98383836110d7565b505050565b610af6610fae565b61081e5f61111a565b610b07610fae565b6107688484848461116b565b610b1b610fae565b61081e6111c6565b60606001600160a01b038316610b775760405162461bcd60e51b815260206004820152601960248201527843616e6e6f74207175657279207a65726f206164647265737360381b60448201526064016107bc565b81516001600160401b03811115610b9057610b90611a69565b604051908082528060200260200182016040528015610bb9578160200160208202803683370190505b5090505f5b8251811015610c0f57610bea84848381518110610bdd57610bdd612135565b60200260200101516105f5565b828281518110610bfc57610bfc612135565b6020908102919091010152600101610bbe565b5092915050565b60605f82118015610c285750600a8211155b610c745760405162461bcd60e51b815260206004820152601d60248201527f496e76616c6964206e756d626572206f66204e4654732028312d31302900000060448201526064016107bc565b6106163383610c8d565b610c89338383611209565b5050565b6060610c97610fae565b6001600160a01b038316610ced5760405162461bcd60e51b815260206004820152601b60248201527f43616e6e6f74206d696e7420746f207a65726f2061646472657373000000000060448201526064016107bc565b5f82118015610cfd5750600a8211155b610d495760405162461bcd60e51b815260206004820152601d60248201527f496e76616c6964206e756d626572206f66204e4654732028312d35302900000060448201526064016107bc565b816001600160401b03811115610d6157610d61611a69565b604051908082528060200260200182016040528015610d8a578160200160208202803683370190505b5090505f826001600160401b03811115610da657610da6611a69565b604051908082528060200260200182016040528015610dcf578160200160208202803683370190505b5090505f5b83811015610e2957610de461129d565b838281518110610df657610df6612135565b6020026020010181815250506001828281518110610e1657610e16612135565b6020908102919091010152600101610dd4565b50610e4484838360405180602001604052805f815250610fe7565b836001600160a01b03167fb966c82d18e893494e0313dcdb63a93cd5f344a860dae60a2f3ec095c8e35e628342604051610e7f929190612149565b60405180910390a25092915050565b5f5f610e9a84846105f5565b8015159590945092505050565b6060610c0f826108ea565b6001600160a01b039182165f90815260016020908152604080832093909416825291909152205460ff1690565b336001600160a01b0386168114801590610f005750610efe8682610eb2565b155b15610f315760405163711bec9160e11b81526001600160a01b038083166004830152871660248201526044016107bc565b6107d28686868686611340565b610f46610fae565b6001600160a01b038116610f6f57604051631e4fbdf760e01b81525f60048201526024016107bc565b61067c8161111a565b6001600160a01b0383163314801590610f985750610f968333610eb2565b155b15610fa35733610ab1565b610ae98383836113cc565b6003546001600160a01b0316331461081e5760405163118cdaa760e01b81523360048201526024016107bc565b6002610c8982826121ae565b6001600160a01b03841661101057604051632bfa23e760e11b81525f60048201526024016107bc565b6107685f8585858561142e565b6001600160a01b03841661104657604051632bfa23e760e11b81525f60048201526024016107bc565b6001600160a01b03851661106e57604051626a0d4560e21b81525f60048201526024016107bc565b61107b858585858561142e565b5050505050565b61108a611481565b6003805460ff60a01b191690557f5db9ee0a495bf2e6ff9c91a7834c1ba4fdd244a5e8aa4e537bd38aeae4b073aa335b6040516001600160a01b03909116815260200160405180910390a1565b6001600160a01b0383166110ff57604051626a0d4560e21b81525f60048201526024016107bc565b610ae9835f848460405180602001604052805f81525061142e565b600380546001600160a01b038381166001600160a01b0319831681179093556040519116919082907f8be0079c531659141344cd1fd0a4f28419497f9722a3daafe3b4186f6b6457e0905f90a35050565b6001600160a01b03841661119457604051632bfa23e760e11b81525f60048201526024016107bc565b604080516001808252602082018690528183019081526060820185905260808201909252906107d25f8784848761142e565b6111ce6114ab565b6003805460ff60a01b1916600160a01b1790557f62e78cea01bee320cd4e420270b5ea74000d11b0c9f74754ebdbfc544b05a2586110ba3390565b6001600160a01b0382166112315760405162ced3e160e81b81525f60048201526024016107bc565b6001600160a01b038381165f81815260016020908152604080832094871680845294825291829020805460ff191686151590811790915591519182527f17307eab39ab6107e8899845ad3d59bd9653f200f220920489ca2b5937696c31910160405180910390a3505050565b600680545f91826112ad8361210a565b91905055505f4244336006546040516020016112f49493929190938452602084019290925260601b6bffffffffffffffffffffffff19166040830152605482015260740190565b60408051601f1981840301815291905280516020909101209050600161131b816014612268565b611326906001612122565b611330908361227b565b61133a9190612122565b91505090565b6001600160a01b03841661136957604051632bfa23e760e11b81525f60048201526024016107bc565b6001600160a01b03851661139157604051626a0d4560e21b81525f60048201526024016107bc565b604080516001808252602082018690528183019081526060820185905260808201909252906113c3878784848761142e565b50505050505050565b6001600160a01b0383166113f457604051626a0d4560e21b81525f60048201526024016107bc565b604080516001808252602082018590528183019081526060820184905260a082019092525f6080820181815291929161107b918791859085905b61143a858585856114d6565b6001600160a01b0384161561107b5782513390600103611473576020848101519084015161146c8389898585896114e2565b50506107d2565b6107d2818787878787611603565b600354600160a01b900460ff1661081e57604051638dfc202b60e01b815260040160405180910390fd5b600354600160a01b900460ff161561081e5760405163d93c066560e01b815260040160405180910390fd5b610768848484846116ea565b6001600160a01b0384163b156107d25760405163f23a6e6160e01b81526001600160a01b0385169063f23a6e6190611526908990899088908890889060040161229a565b6020604051808303815f875af1925050508015611560575060408051601f3d908101601f1916820190925261155d918101906122de565b60015b6115c7573d80801561158d576040519150601f19603f3d011682016040523d82523d5f602084013e611592565b606091505b5080515f036115bf57604051632bfa23e760e11b81526001600160a01b03861660048201526024016107bc565b805160208201fd5b6001600160e01b0319811663f23a6e6160e01b146113c357604051632bfa23e760e11b81526001600160a01b03861660048201526024016107bc565b6001600160a01b0384163b156107d25760405163bc197c8160e01b81526001600160a01b0385169063bc197c819061164790899089908890889088906004016122f9565b6020604051808303815f875af1925050508015611681575060408051601f3d908101601f1916820190925261167e918101906122de565b60015b6116ae573d80801561158d576040519150601f19603f3d011682016040523d82523d5f602084013e611592565b6001600160e01b0319811663bc197c8160e01b146113c357604051632bfa23e760e11b81526001600160a01b03861660048201526024016107bc565b6116f6848484846117d1565b6001600160a01b038416611773575f805b835181101561175a5760208181028481018201519086018201515f90815260049092526040822080549192839261173f908490612122565b9091555061174f90508184612122565b925050600101611707565b508060055f82825461176c9190612122565b9091555050505b6001600160a01b038316610768575f805b83518110156117c05760208181028481018201519086018201515f90815260049092526040909120805482900390559190910190600101611784565b506005805491909103905550505050565b6117d96114ab565b61076884848484805182511461180f5781518151604051635b05999160e01b8152600481019290925260248201526044016107bc565b335f5b8351811015611911576020818102858101820151908501909101516001600160a01b038816156118c3575f828152602081815260408083206001600160a01b038c1684529091529020548181101561189d576040516303dee4c560e01b81526001600160a01b038a1660048201526024810182905260448101839052606481018490526084016107bc565b5f838152602081815260408083206001600160a01b038d16845290915290209082900390555b6001600160a01b03871615611907575f828152602081815260408083206001600160a01b038b16845290915281208054839290611901908490612122565b90915550505b5050600101611812565b5082516001036119915760208301515f906020840151909150856001600160a01b0316876001600160a01b0316846001600160a01b03167fc3d58168c5ae7397731d063d5bbf3d657854427343f4c083240f7aacaa2d0f628585604051611982929190918252602082015260400190565b60405180910390a4505061107b565b836001600160a01b0316856001600160a01b0316826001600160a01b03167f4a39dc06d4c0dbc64b70af90fd698a233a518aa5d07e595d983b8c0526c8f7fb86866040516119e0929190611ec0565b60405180910390a45050505050565b80356001600160a01b0381168114611a05575f5ffd5b919050565b5f5f60408385031215611a1b575f5ffd5b611a24836119ef565b946020939093013593505050565b6001600160e01b03198116811461067c575f5ffd5b5f60208284031215611a57575f5ffd5b8135611a6281611a32565b9392505050565b634e487b7160e01b5f52604160045260245ffd5b604051601f8201601f191681016001600160401b0381118282101715611aa557611aa5611a69565b604052919050565b5f5f6001600160401b03841115611ac657611ac6611a69565b50601f8301601f1916602001611adb81611a7d565b915050828152838383011115611aef575f5ffd5b828260208301375f602084830101529392505050565b5f60208284031215611b15575f5ffd5b81356001600160401b03811115611b2a575f5ffd5b8201601f81018413611b3a575f5ffd5b611b4984823560208401611aad565b949350505050565b5f60208284031215611b61575f5ffd5b5035919050565b5f81518084528060208401602086015e5f602082860101526020601f19601f83011685010191505092915050565b602081525f611a626020830184611b68565b5f60208284031215611bb8575f5ffd5b611a62826119ef565b5f6001600160401b03821115611bd957611bd9611a69565b5060051b60200190565b5f82601f830112611bf2575f5ffd5b8135611c05611c0082611bc1565b611a7d565b8082825260208201915060208360051b860101925085831115611c26575f5ffd5b602085015b83811015611c43578035835260209283019201611c2b565b5095945050505050565b5f82601f830112611c5c575f5ffd5b611a6283833560208501611aad565b5f5f5f5f60808587031215611c7e575f5ffd5b611c87856119ef565b935060208501356001600160401b03811115611ca1575f5ffd5b611cad87828801611be3565b93505060408501356001600160401b03811115611cc8575f5ffd5b611cd487828801611be3565b92505060608501356001600160401b03811115611cef575f5ffd5b611cfb87828801611c4d565b91505092959194509250565b5f5f5f5f5f60a08688031215611d1b575f5ffd5b611d24866119ef565b9450611d32602087016119ef565b935060408601356001600160401b03811115611d4c575f5ffd5b611d5888828901611be3565b93505060608601356001600160401b03811115611d73575f5ffd5b611d7f88828901611be3565b92505060808601356001600160401b03811115611d9a575f5ffd5b611da688828901611c4d565b9150509295509295909350565b5f5f60408385031215611dc4575f5ffd5b82356001600160401b03811115611dd9575f5ffd5b8301601f81018513611de9575f5ffd5b8035611df7611c0082611bc1565b8082825260208201915060208360051b850101925087831115611e18575f5ffd5b6020840193505b82841015611e4157611e30846119ef565b825260209384019390910190611e1f565b945050505060208301356001600160401b03811115611e5e575f5ffd5b611e6a85828601611be3565b9150509250929050565b5f8151808452602084019350602083015f5b82811015611ea4578151865260209586019590910190600101611e86565b5093949350505050565b602081525f611a626020830184611e74565b604081525f611ed26040830185611e74565b8281036020840152611ee48185611e74565b95945050505050565b5f5f5f60608486031215611eff575f5ffd5b611f08846119ef565b925060208401356001600160401b03811115611f22575f5ffd5b611f2e86828701611be3565b92505060408401356001600160401b03811115611f49575f5ffd5b611f5586828701611be3565b9150509250925092565b5f5f5f5f60808587031215611f72575f5ffd5b611f7b856119ef565b9350602085013592506040850135915060608501356001600160401b03811115611cef575f5ffd5b5f5f60408385031215611fb4575f5ffd5b611fbd836119ef565b915060208301356001600160401b03811115611e5e575f5ffd5b5f5f60408385031215611fe8575f5ffd5b611ff1836119ef565b915060208301358015158114612005575f5ffd5b809150509250929050565b5f5f60408385031215612021575f5ffd5b61202a836119ef565b9150612038602084016119ef565b90509250929050565b5f5f5f5f5f60a08688031215612055575f5ffd5b61205e866119ef565b945061206c602087016119ef565b9350604086013592506060860135915060808601356001600160401b03811115611d9a575f5ffd5b5f5f5f606084860312156120a6575f5ffd5b6120af846119ef565b95602085013595506040909401359392505050565b600181811c908216806120d857607f821691505b60208210810361074e57634e487b7160e01b5f52602260045260245ffd5b634e487b7160e01b5f52601160045260245ffd5b5f6001820161211b5761211b6120f6565b5060010190565b80820180821115610616576106166120f6565b634e487b7160e01b5f52603260045260245ffd5b604081525f61215b6040830185611e74565b90508260208301529392505050565b601f821115610ae957805f5260205f20601f840160051c8101602085101561218f5750805b601f840160051c820191505b8181101561107b575f815560010161219b565b81516001600160401b038111156121c7576121c7611a69565b6121db816121d584546120c4565b8461216a565b6020601f82116001811461220d575f83156121f65750848201515b5f19600385901b1c1916600184901b17845561107b565b5f84815260208120601f198516915b8281101561223c578785015182556020948501946001909201910161221c565b508482101561225957868401515f19600387901b60f8161c191681555b50505050600190811b01905550565b81810381811115610616576106166120f6565b5f8261229557634e487b7160e01b5f52601260045260245ffd5b500690565b6001600160a01b03868116825285166020820152604081018490526060810183905260a0608082018190525f906122d390830184611b68565b979650505050505050565b5f602082840312156122ee575f5ffd5b8151611a6281611a32565b6001600160a01b0386811682528516602082015260a0604082018190525f9061232490830186611e74565b82810360608401526123368186611e74565b9050828103608084015261234a8185611b68565b9897505050505050505056fea26469706673582212200b4adea42f3257c8586398d5e0367ad5e215697523c9b3bf3cc65c6fbd6e0c3164736f6c634300081c0033",
  "linkReferences": {},
  "deployedLinkReferences": {},
  "immutableReferences": {},
  "inputSourceName": "project/contracts/Lord.sol",
  "buildInfoId": "solc-0_8_28-dd0e1fb96313e4360cafd2ed797df79dfa6c76f6"
}